{
  "contractName": "ProductChain",
  "abi": [
    {
      "inputs": [],
      "stateMutability": "nonpayable",
      "type": "constructor"
    },
    {
      "anonymous": false,
      "inputs": [
        {
          "indexed": false,
          "internalType": "string",
          "name": "productID",
          "type": "string"
        },
        {
          "indexed": false,
          "internalType": "string",
          "name": "productName",
          "type": "string"
        }
      ],
      "name": "ProductAdded",
      "type": "event"
    },
    {
      "inputs": [],
      "name": "owner",
      "outputs": [
        {
          "internalType": "address",
          "name": "",
          "type": "address"
        }
      ],
      "stateMutability": "view",
      "type": "function"
    },
    {
      "inputs": [
        {
          "internalType": "uint256",
          "name": "",
          "type": "uint256"
        }
      ],
      "name": "productIDs",
      "outputs": [
        {
          "internalType": "string",
          "name": "",
          "type": "string"
        }
      ],
      "stateMutability": "view",
      "type": "function"
    },
    {
      "inputs": [
        {
          "internalType": "string",
          "name": "",
          "type": "string"
        }
      ],
      "name": "products",
      "outputs": [
        {
          "internalType": "string",
          "name": "productID",
          "type": "string"
        },
        {
          "internalType": "string",
          "name": "productName",
          "type": "string"
        },
        {
          "internalType": "string",
          "name": "description",
          "type": "string"
        },
        {
          "internalType": "uint256",
          "name": "price",
          "type": "uint256"
        },
        {
          "internalType": "uint256",
          "name": "timestamp",
          "type": "uint256"
        }
      ],
      "stateMutability": "view",
      "type": "function"
    },
    {
      "inputs": [
        {
          "internalType": "string",
          "name": "_productID",
          "type": "string"
        },
        {
          "internalType": "string",
          "name": "_productName",
          "type": "string"
        },
        {
          "internalType": "string",
          "name": "_description",
          "type": "string"
        },
        {
          "internalType": "uint256",
          "name": "_price",
          "type": "uint256"
        }
      ],
      "name": "addProduct",
      "outputs": [],
      "stateMutability": "nonpayable",
      "type": "function"
    },
    {
      "inputs": [],
      "name": "getAllProductIDs",
      "outputs": [
        {
          "internalType": "string[]",
          "name": "",
          "type": "string[]"
        }
      ],
      "stateMutability": "view",
      "type": "function"
    },
    {
      "inputs": [
        {
          "internalType": "string",
          "name": "_productID",
          "type": "string"
        }
      ],
      "name": "getProductDetails",
      "outputs": [
        {
          "internalType": "string",
          "name": "",
          "type": "string"
        },
        {
          "internalType": "string",
          "name": "",
          "type": "string"
        },
        {
          "internalType": "string",
          "name": "",
          "type": "string"
        },
        {
          "internalType": "uint256",
          "name": "",
          "type": "uint256"
        },
        {
          "internalType": "uint256",
          "name": "",
          "type": "uint256"
        }
      ],
      "stateMutability": "view",
      "type": "function"
    },
    {
      "inputs": [
        {
          "internalType": "string",
          "name": "_productID",
          "type": "string"
        }
      ],
      "name": "isProductIDUnique",
      "outputs": [
        {
          "internalType": "bool",
          "name": "",
          "type": "bool"
        }
      ],
      "stateMutability": "view",
      "type": "function"
    }
  ],
  "bytecode": "0x608060405234801561000f575f80fd5b505f73ffffffffffffffffffffffffffffffffffffffff163373ffffffffffffffffffffffffffffffffffffffff160361007e576040517f08c379a00000000000000000000000000000000000000000000000000000000081526004016100759061011c565b60405180910390fd5b335f806101000a81548173ffffffffffffffffffffffffffffffffffffffff021916908373ffffffffffffffffffffffffffffffffffffffff16021790555061013a565b5f82825260208201905092915050565b7f4f776e65722063616e6e6f74206265207a65726f2061646472657373000000005f82015250565b5f610106601c836100c2565b9150610111826100d2565b602082019050919050565b5f6020820190508181035f830152610133816100fa565b9050919050565b6114e980620001485f395ff3fe608060405234801561000f575f80fd5b506004361061007b575f3560e01c80638ac529b3116100595780638ac529b3146101035780638c4c42cd146101335780638da5cb5b14610151578063f2d141651461016f5761007b565b80630186a4231461007f578063198c59b0146100b35780638165fed5146100e7575b5f80fd5b61009960048036038101906100949190610b39565b61019f565b6040516100aa959493929190610c12565b60405180910390f35b6100cd60048036038101906100c89190610b39565b61037b565b6040516100de959493929190610c12565b60405180910390f35b61010160048036038101906100fc9190610ca2565b6105e3565b005b61011d60048036038101906101189190610b39565b610823565b60405161012a9190610d74565b60405180910390f35b61013b61084f565b6040516101489190610e90565b60405180910390f35b610159610923565b6040516101669190610eef565b60405180910390f35b61018960048036038101906101849190610f08565b610946565b6040516101969190610f33565b60405180910390f35b6001818051602081018201805184825260208301602085012081835280955050505050505f91509050805f0180546101d690610f80565b80601f016020809104026020016040519081016040528092919081815260200182805461020290610f80565b801561024d5780601f106102245761010080835404028352916020019161024d565b820191905f5260205f20905b81548152906001019060200180831161023057829003601f168201915b50505050509080600101805461026290610f80565b80601f016020809104026020016040519081016040528092919081815260200182805461028e90610f80565b80156102d95780601f106102b0576101008083540402835291602001916102d9565b820191905f5260205f20905b8154815290600101906020018083116102bc57829003601f168201915b5050505050908060020180546102ee90610f80565b80601f016020809104026020016040519081016040528092919081815260200182805461031a90610f80565b80156103655780601f1061033c57610100808354040283529160200191610365565b820191905f5260205f20905b81548152906001019060200180831161034857829003601f168201915b5050505050908060030154908060040154905085565b60608060605f805f6001876040516103939190610fea565b90815260200160405180910390206040518060a00160405290815f820180546103bb90610f80565b80601f01602080910402602001604051908101604052809291908181526020018280546103e790610f80565b80156104325780601f1061040957610100808354040283529160200191610432565b820191905f5260205f20905b81548152906001019060200180831161041557829003601f168201915b5050505050815260200160018201805461044b90610f80565b80601f016020809104026020016040519081016040528092919081815260200182805461047790610f80565b80156104c25780601f10610499576101008083540402835291602001916104c2565b820191905f5260205f20905b8154815290600101906020018083116104a557829003601f168201915b505050505081526020016002820180546104db90610f80565b80601f016020809104026020016040519081016040528092919081815260200182805461050790610f80565b80156105525780601f1061052957610100808354040283529160200191610552565b820191905f5260205f20905b81548152906001019060200180831161053557829003601f168201915b505050505081526020016003820154815260200160048201548152505090505f8160800151036105b7576040517f08c379a00000000000000000000000000000000000000000000000000000000081526004016105ae90611070565b60405180910390fd5b805f01518160200151826040015183606001518460800151955095509550955095505091939590929450565b5f8054906101000a900473ffffffffffffffffffffffffffffffffffffffff1673ffffffffffffffffffffffffffffffffffffffff163373ffffffffffffffffffffffffffffffffffffffff1614610670576040517f08c379a0000000000000000000000000000000000000000000000000000000008152600401610667906110fe565b60405180910390fd5b5f8451116106b3576040517f08c379a00000000000000000000000000000000000000000000000000000000081526004016106aa90611166565b60405180910390fd5b5f6001856040516106c49190610fea565b90815260200160405180910390206004015414610716576040517f08c379a000000000000000000000000000000000000000000000000000000000815260040161070d906111f4565b60405180910390fd5b6040518060a001604052808581526020018481526020018381526020018281526020014281525060018560405161074d9190610fea565b90815260200160405180910390205f820151815f01908161076e91906113af565b50602082015181600101908161078491906113af565b50604082015181600201908161079a91906113af565b506060820151816003015560808201518160040155905050600284908060018154018082558091505060019003905f5260205f20015f9091909190915090816107e391906113af565b507f50d3c24bed1484121cd34fb35cea80691f70b0818948c325aef1206b13454433848460405161081592919061147e565b60405180910390a150505050565b5f806001836040516108359190610fea565b908152602001604051809103902060040154149050919050565b60606002805480602002602001604051908101604052809291908181526020015f905b8282101561091a578382905f5260205f2001805461088f90610f80565b80601f01602080910402602001604051908101604052809291908181526020018280546108bb90610f80565b80156109065780601f106108dd57610100808354040283529160200191610906565b820191905f5260205f20905b8154815290600101906020018083116108e957829003601f168201915b505050505081526020019060010190610872565b50505050905090565b5f8054906101000a900473ffffffffffffffffffffffffffffffffffffffff1681565b60028181548110610955575f80fd5b905f5260205f20015f91509050805461096d90610f80565b80601f016020809104026020016040519081016040528092919081815260200182805461099990610f80565b80156109e45780601f106109bb576101008083540402835291602001916109e4565b820191905f5260205f20905b8154815290600101906020018083116109c757829003601f168201915b505050505081565b5f604051905090565b5f80fd5b5f80fd5b5f80fd5b5f80fd5b5f601f19601f8301169050919050565b7f4e487b71000000000000000000000000000000000000000000000000000000005f52604160045260245ffd5b610a4b82610a05565b810181811067ffffffffffffffff82111715610a6a57610a69610a15565b5b80604052505050565b5f610a7c6109ec565b9050610a888282610a42565b919050565b5f67ffffffffffffffff821115610aa757610aa6610a15565b5b610ab082610a05565b9050602081019050919050565b828183375f83830152505050565b5f610add610ad884610a8d565b610a73565b905082815260208101848484011115610af957610af8610a01565b5b610b04848285610abd565b509392505050565b5f82601f830112610b2057610b1f6109fd565b5b8135610b30848260208601610acb565b91505092915050565b5f60208284031215610b4e57610b4d6109f5565b5b5f82013567ffffffffffffffff811115610b6b57610b6a6109f9565b5b610b7784828501610b0c565b91505092915050565b5f81519050919050565b5f82825260208201905092915050565b5f5b83811015610bb7578082015181840152602081019050610b9c565b5f8484015250505050565b5f610bcc82610b80565b610bd68185610b8a565b9350610be6818560208601610b9a565b610bef81610a05565b840191505092915050565b5f819050919050565b610c0c81610bfa565b82525050565b5f60a0820190508181035f830152610c2a8188610bc2565b90508181036020830152610c3e8187610bc2565b90508181036040830152610c528186610bc2565b9050610c616060830185610c03565b610c6e6080830184610c03565b9695505050505050565b610c8181610bfa565b8114610c8b575f80fd5b50565b5f81359050610c9c81610c78565b92915050565b5f805f8060808587031215610cba57610cb96109f5565b5b5f85013567ffffffffffffffff811115610cd757610cd66109f9565b5b610ce387828801610b0c565b945050602085013567ffffffffffffffff811115610d0457610d036109f9565b5b610d1087828801610b0c565b935050604085013567ffffffffffffffff811115610d3157610d306109f9565b5b610d3d87828801610b0c565b9250506060610d4e87828801610c8e565b91505092959194509250565b5f8115159050919050565b610d6e81610d5a565b82525050565b5f602082019050610d875f830184610d65565b92915050565b5f81519050919050565b5f82825260208201905092915050565b5f819050602082019050919050565b5f82825260208201905092915050565b5f610dd082610b80565b610dda8185610db6565b9350610dea818560208601610b9a565b610df381610a05565b840191505092915050565b5f610e098383610dc6565b905092915050565b5f602082019050919050565b5f610e2782610d8d565b610e318185610d97565b935083602082028501610e4385610da7565b805f5b85811015610e7e5784840389528151610e5f8582610dfe565b9450610e6a83610e11565b925060208a01995050600181019050610e46565b50829750879550505050505092915050565b5f6020820190508181035f830152610ea88184610e1d565b905092915050565b5f73ffffffffffffffffffffffffffffffffffffffff82169050919050565b5f610ed982610eb0565b9050919050565b610ee981610ecf565b82525050565b5f602082019050610f025f830184610ee0565b92915050565b5f60208284031215610f1d57610f1c6109f5565b5b5f610f2a84828501610c8e565b91505092915050565b5f6020820190508181035f830152610f4b8184610bc2565b905092915050565b7f4e487b71000000000000000000000000000000000000000000000000000000005f52602260045260245ffd5b5f6002820490506001821680610f9757607f821691505b602082108103610faa57610fa9610f53565b5b50919050565b5f81905092915050565b5f610fc482610b80565b610fce8185610fb0565b9350610fde818560208601610b9a565b80840191505092915050565b5f610ff58284610fba565b915081905092915050565b7f50726f647563742077697468207468697320494420646f6573206e6f742065785f8201527f6973740000000000000000000000000000000000000000000000000000000000602082015250565b5f61105a602383610b8a565b915061106582611000565b604082019050919050565b5f6020820190508181035f8301526110878161104e565b9050919050565b7f4f6e6c792074686520636f6e7472616374206f776e65722063616e20706572665f8201527f6f726d207468697320616374696f6e0000000000000000000000000000000000602082015250565b5f6110e8602f83610b8a565b91506110f38261108e565b604082019050919050565b5f6020820190508181035f830152611115816110dc565b9050919050565b7f50726f647563742049442063616e6e6f7420626520656d7074790000000000005f82015250565b5f611150601a83610b8a565b915061115b8261111c565b602082019050919050565b5f6020820190508181035f83015261117d81611144565b9050919050565b7f50726f647563742077697468207468697320494420616c7265616479206578695f8201527f7374730000000000000000000000000000000000000000000000000000000000602082015250565b5f6111de602383610b8a565b91506111e982611184565b604082019050919050565b5f6020820190508181035f83015261120b816111d2565b9050919050565b5f819050815f5260205f209050919050565b5f6020601f8301049050919050565b5f82821b905092915050565b5f6008830261126e7fffffffffffffffffffffffffffffffffffffffffffffffffffffffffffffffff82611233565b6112788683611233565b95508019841693508086168417925050509392505050565b5f819050919050565b5f6112b36112ae6112a984610bfa565b611290565b610bfa565b9050919050565b5f819050919050565b6112cc83611299565b6112e06112d8826112ba565b84845461123f565b825550505050565b5f90565b6112f46112e8565b6112ff8184846112c3565b505050565b5b81811015611322576113175f826112ec565b600181019050611305565b5050565b601f8211156113675761133881611212565b61134184611224565b81016020851015611350578190505b61136461135c85611224565b830182611304565b50505b505050565b5f82821c905092915050565b5f6113875f198460080261136c565b1980831691505092915050565b5f61139f8383611378565b9150826002028217905092915050565b6113b882610b80565b67ffffffffffffffff8111156113d1576113d0610a15565b5b6113db8254610f80565b6113e6828285611326565b5f60209050601f831160018114611417575f8415611405578287015190505b61140f8582611394565b865550611476565b601f19841661142586611212565b5f5b8281101561144c57848901518255600182019150602085019450602081019050611427565b868310156114695784890151611465601f891682611378565b8355505b6001600288020188555050505b505050505050565b5f6040820190508181035f8301526114968185610bc2565b905081810360208301526114aa8184610bc2565b9050939250505056fea2646970667358221220e29453d9a8359c2088dd6b1960646d2564b6b09dc940a74d3a25d2b9a997f7df64736f6c63430008150033",
  "immutableReferences": {},
  "source": "// SPDX-License-Identifier: MIT\r\npragma solidity >=0.8.0 <0.9.0;\r\n\r\ncontract ProductChain {\r\n    // Define the owner of the contract\r\n    address public owner;\r\n\r\n    // Product structure\r\n    struct Product {\r\n        string productID;\r\n        string productName;\r\n        string description;\r\n        uint price;\r\n        uint timestamp;\r\n    }\r\n\r\n    // Mapping to store products with productID as the key\r\n    mapping(string => Product) public products;\r\n\r\n    // Array to hold all productIDs (to keep track of the products)\r\n    string[] public productIDs;\r\n\r\n    // Modifier to restrict certain functions to the owner only\r\n    modifier onlyOwner() {\r\n        require(msg.sender == owner, \"Only the contract owner can perform this action\");\r\n        _;\r\n    }\r\n\r\n    // Event to emit when a new product is added\r\n    event ProductAdded(string productID, string productName);\r\n\r\n    // Constructor to set the owner of the contract\r\n    constructor() {\r\n        require(msg.sender != address(0), \"Owner cannot be zero address\");\r\n        owner = msg.sender; // Owner is the account that deploys the contract\r\n    }\r\n\r\n    // Function to add a new product (restricted to owner)\r\n    function addProduct(string memory _productID, string memory _productName, string memory _description, uint _price) public onlyOwner {\r\n        require(bytes(_productID).length > 0, \"Product ID cannot be empty\");\r\n        require(products[_productID].timestamp == 0, \"Product with this ID already exists\"); // Check for uniqueness\r\n\r\n        // Create the product and store it in the products mapping\r\n        products[_productID] = Product({\r\n            productID: _productID,\r\n            productName: _productName,\r\n            description: _description,\r\n            price: _price,\r\n            timestamp: block.timestamp // Store the current block's timestamp\r\n        });\r\n\r\n        // Add the product ID to the array for tracking\r\n        productIDs.push(_productID);\r\n\r\n        // Emit the event\r\n        emit ProductAdded(_productID, _productName);\r\n    }\r\n\r\n    // Function to get all product IDs\r\n    function getAllProductIDs() public view returns (string[] memory) {\r\n        return productIDs;\r\n    }\r\n\r\n    // Function to get product details by product ID\r\n    function getProductDetails(string memory _productID) public view returns (string memory, string memory, string memory, uint, uint) {\r\n        Product memory product = products[_productID];\r\n        require(product.timestamp != 0, \"Product with this ID does not exist\"); // Ensure product exists\r\n        return (product.productID, product.productName, product.description, product.price, product.timestamp);\r\n    }\r\n\r\n    // Function to check if a product ID exists\r\n    function isProductIDUnique(string memory _productID) public view returns (bool) {\r\n        return products[_productID].timestamp == 0;\r\n    }\r\n}\r\n",
  "sourcePath": "C:\\Users\\Debashish\\javascript\\contracts\\ProductChain.sol",
  "compiler": {
    "name": "solc",
    "version": "0.8.21+commit.d9974bed.Emscripten.clang"
  },
  "schemaVersion": "3.4.16",
  "updatedAt": "2024-10-03T07:12:20.974Z",
  "devdoc": {
    "kind": "dev",
    "methods": {},
    "version": 1
  },
  "userdoc": {
    "kind": "user",
    "methods": {},
    "version": 1
  }
}